:020000040800F2
:10000000902100205D0300084DC6000873A8000879
:1000100049C60008E5210008F9E8000800000000D2
:10002000000000000000000000000000B90200080D
:10003000AD25000800000000FD02000887E0000870
:1000400077030008770300087703000877030008A8
:100050007703000877030008770300087703000898
:10006000AF250008B9250008C3250008770300085C
:1000700077030008770300086D2500087703000860
:10008000770300087D250008770300087703000840
:100090007703000877030008770300087703000858
:1000A0007703000877030008770300087703000848
:1000B000770300087703000849E300087703000886
:1000C0007703000877030008770300087703000828
:1000D00077030008D9E80008E9E80008770300087A
:1000E0007703000877030008770300087703000808
:1000F00077030008770300087703000877030008F8
:1001000077030008770300087703000877030008E7
:10011000770300087703000859E300087703000815
:1001200077030008770300087703000877030008C7
:1001300000F002F800F0B0F80AA090E8000C824449
:100140008344AAF10107DA4501D100F0A5F8AFF226
:10015000090EBAE80F0013F0010F18BFFB1A43F0A5
:100160000103184768CF010088CF01000A444FF00F
:10017000000C10F8013B13F0070408BF10F8014B06
:100180001D1108BF10F8015B641E05D010F8016B4B
:10019000641E01F8016BF9D113F0080F1EBF10F8AF
:1001A000014BAD1C0C1B09D16D1E58BF01F801CBD2
:1001B000FAD505E014F8016B01F8016B6D1EF9D555
:1001C0009142D6D37047000000230024002500266A
:1001D000103A28BF78C1FBD8520728BF30C148BFAA
:1001E0000B6070476E2900F01183702900F0658460
:1001F00066291AF0CC8165291AF0C98167291AF09D
:10020000C68161291AF0C58103681B0A28BF41F025
:100210008001692900F0BE82642900F0BB82752943
:1002200000F0B8826F2900F0F283782900F0318461
:10023000E92900F08D83E42900F08A83F52900F094
:100240008783EF2900F0EF83F82900F030840368FA
:10025000DB0928BF41F08001632901F0D5817329B2
:1002600001F0DA81E32901F0E581F32901F0EA8167
:10027000002070471FB501F081FA04000020002122
:1002800019F0E2F9401C60600020002119F0F2F939
:10029000E0601FBD10B510BD01F04BFA1146FFF72D
:1002A000E9FF17F043FA01F029FB03B4FFF7F2FF6F
:1002B00003BC17F0A6F80000204B19680868B0E8E6
:1002C000F00F80F30988BFF36F8F4FF0000080F3C9
:1002D00011884EF00D0E70470000000006480068BF
:1002E000006880F3088862B661B6BFF34F8FBFF332
:1002F0006F8F00DF00BF00BF08ED00E0EFF3098063
:10030000BFF36F8F0D4B1A6820E9F00F106008B52E
:100310004FF0500080F3118818F06EFB4FF0000092
:1003200080F31188BDE8084019680868B0E8F00F4C
:1003300080F30988BFF36F8F704700BFEC00002087
:10034000EFF311804FF0500181F31188704780F373
:1003500011887047EFF30580704700000948804717
:1003600009480047FEE7FEE7FEE7FEE7FEE7FEE797
:10037000FEE7FEE7FEE7FEE704480549054A064BAF
:10038000704700002DE1000831010008900F0020A7
:100390009021002090110020901100207047000053
:1003A0001CB50C46064B7B4469460090204600F085
:1003B00046FA04460020694600F054FA20461CBD67
:1003C000BB0400000FB41CB5084B06AA7B44694669
:1003D0000090059800F033FA04460020694600F0CA
:1003E00041FA20461CBC5DF814FB00009504000097
:1003F0000FB4044910B503AA029800F039FA10BCF2
:100400005DF814FB7400002070B5064600F04EF94C
:100410000468054630460A22002100F01DFC2C60CD
:1004200070BD40EA0103024630B59B0710D14FF082
:10043000013400E008C208C91D1B9D4315EAC41F12
:10044000F8D013F0FF0102F8011B0DD01B0AF8E7EA
:1004500011F8013B002B02F8013B05D011F8013BDC
:10046000002B02F8013BF3D130BD2DE9F0410E46DF
:100470000546002400E0641C285D00F01BF90746D7
:10048000305D00F017F9381A02D1295D0029F2D148
:10049000BDE8F08110B5431C02E010F8011B71B1FA
:1004A0008107FAD14FF0013202C88C1A8C4314EA4A
:1004B000C211F9D0C01A0A0603D0C01E10BDC01A5E
:1004C00010BD0A0401D0801E10BD0902FCD0401EE0
:1004D00010BD032A40F2308010F0030C00F01580AC
:1004E00011F8013BBCF1020F624498BF11F801CB37
:1004F00000F8013B38BF11F8013BA2F1040298BF9C
:1005000000F801CB38BF00F8013B11F0030300F005
:100510006780083AC0F0088051F8043B083A51F867
:1005200004CBA0E80810F5E7121D5CBF51F8043BAE
:1005300040F8043BAFF30080D20724BF11F8013B21
:1005400011F801CB48BF11F8012B24BF00F8013B83
:1005500000F801CB48BF00F8012B7047431A28BFB1
:100560009A427FF6B6AF032A1044114440F2268027
:1005700010F0030F1EBF11F8013D521E00F8013D9F
:1005800010F0030F7FF4F6AF11F0030300F0AF8318
:10059000083AC0F00B8051F8043D083A51F804CDF8
:1005A00040F8043D40F804CDFFF7F3BF121D5CBFD7
:1005B00051F8043D40F8043DAFF30080D20724BF5A
:1005C00011F8013D11F801CD48BF11F8012C24BFED
:1005D00000F8013D00F801CD48BF00F8012C70473C
:1005E00010B5203AC0F00B80B1E81850203AA0E8CE
:1005F0001850B1E81850A0E81850BFF4F5AF5FEA02
:10060000027C24BFB1E81850A0E8185044BF18C9B4
:1006100018C0BDE810405FEA827C24BF51F8043B5B
:1006200040F8043B08BF7047D20728BF31F8023BAF
:1006300048BF11F8012B28BF20F8023B48BF00F843
:10064000012B704702F0FF0343EA032242EA024211
:1006500000F079BB4FF0000200B513469446964671
:10066000203922BFA0E80C50A0E80C50B1F12001C5
:10067000BFF4F7AF090728BFA0E80C5048BF0CC073
:100680005DF804EB890028BF40F8042B08BF7047D1
:1006900048BF20F8022B11F0804F18BF00F8012B43
:1006A00070477047704770477047000000487047B8
:1006B000300F002010B5044600F06AFB0068005DB2
:1006C000C00602D504F1200010BD204610BD70B553
:1006D000044685690068C10601D5302600E0202661
:1006E000C00707D070BDD4E9012130469047206A89
:1006F000401C20626D1EF6D570BD70B5044685693C
:100700000078C00707D170BDD4E9012120209047AF
:10071000206A401C20626D1EF6D570BD09684A052E
:1007200001D540B27047C905FCD500B270470968D1
:100730004A0501D5C0B27047C905FCD580B27047E3
:1007400070B50C460546012A05D02878800600D5EC
:10075000EA69002302E0012305E05B1C934202D218
:10076000E05C0028F9D1A869E618C01AA861286AD7
:10077000184428622846FFF7AAFF04E0D5E90121C2
:1007800014F8010B9047B442F8D32846FFF7B5FFA1
:1007900070BD00002DE9F04106460024106875295F
:1007A000314616A510D0FFF7B9FF002802DA404203
:1007B00013A507E031688A0701D512A502E04907B1
:1007C00004D511A5012401E0FFF7B1FF00210A22A1
:1007D00006F1240709E0B0FBF2FCB0FBF2F302FBE8
:1007E0001C00303078541846491C0028F3D12346A9
:1007F0002A463046BDE8F04100F017BB000000007B
:100800002D0000002B00000020000000116802688D
:10081000006A530501D508700AE0D30501D50880A8
:1008200006E0130603D5C217C1E9000200E0086024
:100830000120704701694A1C02610878704700B5C1
:100840008FB0CDE901310021059105497944CDE909
:1008500003101146684600F03BF90FB000BD0000E0
:10086000E5FFFFFF0A6802F8010B0A60704700000D
:10087000074B70B50D467B44FFF7E1FF0446284661
:1008800000F033FF10B14FF0FF3070BD204670BD57
:100890001F6E01002DE9FF5F15468A460446DFF80A
:1008A000AC80F8440027D8E900103E46CDE900109E
:1008B00010E03AF816106A4602A800F01AFF411C30
:1008C00007D02178890603D5E269391891420DD8FD
:1008D0000744761C2078800602D5E069B84205DD21
:1008E000AE42E6DB3AF816000028E2D1A069C01B50
:1008F000A0612046FFF7EBFED8E90010CDE900101B
:10090000002017E03AF818106A4602A800F0F1FE3D
:10091000B0F1FF3F81460BD000250DF1080B05E03B
:10092000D4E901211BF8050090476D1C4D45F7D314
:1009300008F10100B0428046E4DB206A38442062BE
:100940002046FFF7DAFEBDE8FF9F00008AC60100DF
:100950002DE9F0418046D21D22F007020025D2E9A0
:100960000002F52915A614D0011E72F1000106DA65
:100970000023D0EB030063EB020211A608E0D8F8D5
:1009800000108B0701D50FA602E0490701D50EA67E
:1009900001251146002408F1240704E000F000FAC4
:1009A00030323A55641C50EA0102F7D12B463246E8
:1009B00021464046BDE8F04100F037BA0000000093
:1009C0002D0000002B0000002000000030B40021AA
:1009D00000F1240408E002F00705D208303542EAAD
:1009E0004372DB086554491C52EA0305F3D10468DD
:1009F000002310A2250707D5A40600D421B1C4699D
:100A000001230DA2641EC46130BC00F00EBA10B503
:100A1000044621461068FFF78AFE02462046BDE8DC
:100A200010400023D2E7D21D22F00701D1E90023B4
:100A3000CCE700000000000030000000F0B40D46DC
:100A40000188090502D5214C7C4402E01F4C7C44FE
:100A50000E34002100F1240608E002F00F0712090D
:100A6000E75D42EA03721B097754491C52EA030707
:100A7000F3D102780023120704D5702D06D009B1F6
:100A8000022311342246F0BC00F0CFB90123103408
:100A9000F8E770B504460D4621461068FFF747FE9B
:100AA000024629462046BDE870400023C6E7D21D15
:100AB00022F00703D3E90023C0E70368126843F07C
:100AC000200303600823C3610023B7E7ECC40100DF
:100AD0002DE9F05F894604464FF0000ADFF874B153
:100AE000FB44C0F820A02046E1688847002874D065
:100AF000252806D0D4E901219047206A401C2062B5
:100B0000F1E700265F462046E16888472028054631
:100B100007DB312D05D2781910F8200C08B10643F7
:100B2000F1E7B00701D526F00406C4F81CA00027A1
:100B3000C4F818A02A2D09D0284616F05BFC38B35B
:100B400004EB8708303DC8F8185019E059F8041B29
:100B5000204604EB87029161E1688847012F054632
:100B600018D1E069002820DA26F020061DE0D8F828
:100B7000180000EB800005EB40003038C8F8180082
:100B80002046E1688847054616F034FC0028EED17F
:100B9000012F0AD02E2D08D12046E16888477F1CFE
:100BA0000546022F46F02006C4DBA069002803DAC0
:100BB000404246F00106A061F00701D026F0100681
:100BC0006C2D0BD0682D09D04C2D39D06A2D35D025
:100BD000742D35D07A2D33D016E038E0E1682F46F9
:100BE00020468847B842054609D16C2F26D04FF4DD
:100BF0008060E168064320468847054604E06C2F84
:100C00001AD04FF4807006430DB3A5F141001928A6
:100C100002D8203546F400664A462946204626601A
:100C20004E46FFF7DFFA80B101280BD0F61D26F003
:100C3000070000F1080956E74020E4E78020D8E7E4
:100C40000020D6E706F104094DE7284652E7206A5E
:100C5000BDE8F09F7CC401002DE9F04791460F46A6
:100C600080460446002614F8015B2DB100F090F890
:100C70000068405DC007F6D12B2D02D02D2D18D075
:100C8000641E4A463946204600F0E0FC27B1396828
:100C9000A14201D1C7F800804FF0020471050BD5C5
:100CA0004042002803DDFFF701FD0460A007BDE816
:100CB000F08746F48066E4E70028F8DAFFF7F6FCF0
:100CC00004606FF00040F2E7431A28BF9A427FF6B3
:100CD00087AC104410F0030F11441EBF11F8013D02
:100CE000521E00F8013D10F0030F7FF4F6AF103AEA
:100CF000C0F00A8010B531E91850103A20E91850B8
:100D0000BFF4F9AFBDE81040530724BF31E9081024
:100D100020E9081044BF51F8043D40F8043D12F0AA
:100D2000030F08BF7047D20728BF31F8023D48BF04
:100D300011F8012C28BF20F8023D48BF00F8012C13
:100D400070474FF000020429C0F0128010F0030C2D
:100D50003FF482ACCCF1040CBCF1020F18BF00F8D8
:100D6000012BA8BF20F8022BA1EB0C01FFF774BCEC
:100D70005FEAC17C24BF00F8012B00F8012B48BFBB
:100D800000F8012B7047000000487047300F00202A
:100D900010B500F0F3FC001D10BD00BFAD880100D0
:100DA00030B5B0F10A024FEA900E71F100034EEA3D
:100DB000817EB0EB0E0061EB91014FEA101E4EEA0E
:100DC000017E10EB0E0041EB11114FEA102E4EEA9E
:100DD000016E10EB0E0041EB11214FEA104E4EEA6E
:100DE000014E10EB0E0041EB1141401841F10001A2
:100DF0004FEAD00040EA41704FEAD10110EB800584
:100E00004FEA810444EA907444EB01046D1944EB09
:100E10000404521BA3414FF0000348BF0A3200D51F
:100E200030BD401C41F1000130BD2DE9F0470D46B9
:100E300099469246044600F124080168880604D5C4
:100E4000E06921F01001216000E00120A84201DDED
:100E5000471B00E00027A1697A1902EB0900081A74
:100E6000A0612078C00602D42046FFF730FC00269F
:100E700008E0D4E901211AF806009047206A401CD6
:100E8000761C20624E45F4DB2078C0060AD5204649
:100E9000FFF71DFC06E0D4E9012130209047206ACD
:100EA000401C2062381EA7F10107F4DC07E0D4E9FA
:100EB000012118F805009047206A401C2062281E76
:100EC000A5F10105F3DC2046FFF717FC20780006AA
:100ED00002D50220BDE8F0870120FBE770472DE92D
:100EE000FF4F0C461E464FF0FF378BB0D2E9000192
:100EF000DDF860800A908A46C1F30A5505B93D467F
:100F0000002108464FF00000BAF1000F00F4400045
:100F100005DA00EB80004FF4400101EA50004FEA8F
:100F20009059B9F1010F00DDB9460A9850EA4A001C
:100F30000ED044F61050A5F2FF3545432F14B8F1FA
:100F4000000F1ED07542291E1EDDC9F100021CE0F3
:100F5000B8F1010F4FF0000001D0302103E0F2435F
:100F600005E02154401CB042FBDB3046002200214A
:100F700021540B99C1F80880C1E900200FB0BDE8E9
:100F8000F08FBD1B6D1CDEE74A4600DA694206A8F9
:100F900000F046FC06AB93E8070003AB83E80700CC
:100FA00050460A9900F0F4FC8DE80700A0F50050C7
:100FB0001F3800900398002D09DD42F21F014A46B8
:100FC000084403A90390684600F053FF08E0A0F529
:100FD00000504A461F3803A90390684600F05DFFA1
:100FE0008DE807000004000C03D04FF0FF304108EB
:100FF00000E01046B8F1000F03D000220092154621
:101000001EE0751E05D4FFF7CBFE303262556D1E13
:10101000F9D5B3460122084302D000227F1C04E028
:101020002078302801D100227F1E002A099786D01F
:101030001DE0112D07DAFFF7B3FE303262556D1C4B
:1010400050EA0102F5D1084302D00098C8B10EE081
:101050000021681E05E0235C625C63542254401E3C
:10106000491C8142F7DBAB46A81B401E09900020BB
:1010700004F80B000B98099AC0F80880C0E9002B0F
:101080007CE711264FF0000859E72DE9F04F88461C
:101090000446D21D22F0070191B0D1E90001CDE94B
:1010A0000A0116F0A3F802460B98C00F01D02D20BC
:1010B00007E02068810701D52B2002E0202101EA0A
:1010C000C000032A099001D0072A05DB03464146E8
:1010D000204600F057FB0BE12078800601D5E0693F
:1010E00000E00620B8F1650F814606D0B8F1660F22
:1010F00018D0B8F1670F70D131E00020B9F1110FAD
:10110000009001DB112301E009F101030AAA01A902
:101110000CA8FFF7E4FEDDE90C70002609F10105DB
:10112000834647E001204B4600904FF000470AAA53
:1011300001A90CA8FFF7D3FEDDE90DB00C995D46BF
:10114000002610B909F101000D18B9EB050003D410
:10115000C0F1FF3609F10105A5EB09002BE0B9F15B
:10116000010F01DA4FF001090020B9F1110F0090D1
:10117000484601DD112300E003460AAA01A90CA894
:10118000FFF7ADFEDDE90C704D4600268346207862
:1011900000070AD4AB4500DA5D4601A8012D04DD45
:1011A000411911F8011C302907D04F4502DA17F117
:1011B000040F04DA012082460FE06D1EEEE7002FD7
:1011C00002DCED1B3E4403E0781CA84200DD7D1CE0
:1011D000B81B00F1010A4FF000472078000703D444
:1011E000AA4501DB4FF0FF3A0021B7F1004F0DF1A6
:1011F00043088DF8431024D002202B23002F01DA5E
:101200007F422D230A21021EA0F1010000DC5FB104
:1012100097FBF1FC97FBF1F201FB1C7C17460CF1EC
:10122000300C08F801CDEEE7A8F101000370218829
:10123000090501D5452100E06521A0F1010800F86C
:10124000011C09980FA9A1EB0807FF1D00B101209F
:10125000411901EBEA70A1693844081A401EA061E7
:101260002078C00602D42046FFF731FA099828B149
:10127000D4E901219047206A401C20622078C006F2
:1012800022D52046FFF723FA1EE0002E04DBB345EB
:1012900002DD01A8805D00E03020D4E90121904703
:1012A000206A401C2062761CAAF101005FEA000A55
:1012B0000AD100F063FAC0680168405CD4E90121FA
:1012C0009047206A401C2062281EA5F10105DCDC45
:1012D00007E0D4E9012118F8010B9047206A401C6F
:1012E0002062381EA7F10107F3DC2046FFF705FA5C
:1012F000032011B043E600002DE9F04F04460D46EF
:10130000D21D22F0070089B0D0E90097484639463F
:1013100015F06CFF0246F80F01D02D2307E020687E
:10132000810701D52B2302E0202101EAC0038DF8BB
:1013300020300BB1012000E00020032A824601D0BA
:10134000072A04DB2946204600F01CFA3FE12078FA
:10135000800601D40D2500E0E569C7F30A560D2D7E
:1013600049DA00214FEA175B08464FF00000002FD2
:1013700000F4400007DA00EB80004FF4400100EB7E
:10138000D07001EA60008115012901DD4FF0FF31C5
:1013900000224FEA850CBCF1180F06D31346ACF1BE
:1013A00018004FF08052C24003E04FF4801323FA3C
:1013B0000CF30CF10C0CBCF1200F04D3ACF1200C9D
:1013C00009FA0CF001E007FA0CF000294FF0004890
:1013D00001DD18B90FE00ED140450CD319EB02091D
:1013E0005F4121B9404502D19F4329EA0209BBEB85
:1013F000175F00D0761C2088000502D57B48784412
:1014000002E07A487844193808AA302302F80A30F2
:10141000037C0AF10101002E0AF1020A53546A46C4
:1014200002DC4FF0300101E04FF031014FF00108D4
:101430008DF8001002D0A6F2FF3603E059EA47010A
:1014400000D06B4E002D02DC2178090704D54FF047
:1014500002082E218DF80110C44600210BE0C7F3CD
:1014600003433F01C35C491C6D1E02F80830052987
:1014700008F1010801DA002DF1DC00210CE000EB9D
:101480001973491C1B786D1E082902F808304FEAB1
:10149000091908F1010801DA002DF0DC21688B063A
:1014A00002D516E0A8F10108E04505DD02EB0803CE
:1014B00013F8013C302BF5D0B8F1000F09DD02EB39
:1014C000080313F8013C2E2B03D1090701D4A8F11E
:1014D0000108002D05DD3E2102F808106D1E08F1FF
:1014E0000108407C002E02F8080008F1010804DA27
:1014F0002D20764202F8080002E02B2002F80800B6
:101500000A214FF47A70864208F101080BDB96FB42
:10151000F0F3303302F8083096FBF0F308F10108DD
:1015200000FB136601E0642E0CDB642096FBF0F3F5
:10153000303302F8083096FBF0F308F1010800FBA5
:10154000136601E00A2E06DB96FBF1F0303002F85C
:10155000080008F1010896FBF1F001FB1060303043
:1015600002F80800A16908F1010808EB050202EB86
:101570000A00081AA0612078C00602D42046FFF7AE
:10158000A6F8216A08AE01EB0A00206204E0D4E963
:10159000012116F8010B9047BAF1010AF7D2207821
:1015A000C00602D52046FFF792F86E4609E016F80D
:1015B000010B3E280FD0D4E901219047206A401C3E
:1015C0002062B8F10108F2D22046FFF796F809B080
:1015D0000320BDE8F08F206A2844206203E0D4E9AC
:1015E0000121302090476D1EEBD3F8E782BB01004C
:1015F00002FCFFFF10B5436913B1AFF3008001E0B7
:10160000FFF79EF8012010BD127800F124010A7046
:1016100000224A700122EDE711684FF0FF32E9E73E
:1016200010B5436913B1AFF3008001E0FFF732F961
:10163000012010BD128800F1240182840022C2849E
:101640000122EDE711684FF0FF32E9E72DE9F05F85
:10165000824615468B4600270AF10104B9460078F8
:10166000302801D09DB113E014F8010B0127782830
:1016700003D0582801D045B10AE00DB1102D07D193
:10168000002714F8010B102502E0082500E00A25C8
:101690000026B0460EE005FB080005FB06F1012719
:1016A0001FFA80F801EB1046B6F5803F00D3B9462B
:1016B00014F8010B294600F0A5F80028EBDABBF17D
:1016C000000F05D00FB1641E00E05446CBF8004077
:1016D000B9F1000F06D0FEF7E9FF02210160C81E34
:1016E000BDE8F09F48EA0640FAE7007B00F0800082
:1016F000704770B516460C460546FFF749FB036870
:1017000093F80101012806D0FF2C0FD8185D68B1AD
:1017100001202C7070BDD3F807013246214603F238
:10172000071303442846BDE8704018474FF0FF30C8
:1017300070BD7546FFF728FBAE4605006946534667
:1017400020F00700854618B020B5FEF715FEBDE86D
:1017500020404FF000064FF000074FF000084FF018
:10176000000B21F00701AC46ACE8C009ACE8C009A9
:10177000ACE8C009ACE8C0098D4670470048704726
:10178000500F00202DE9F0411F4604460326016852
:10179000072A01F4006004DB08B116A505E016A5D0
:1017A00003E008B115A500E015A521F010002060A8
:1017B000A069C01EA0610FB1401EA0612046FEF7C7
:1017C00086FF4FB1D4E9012138469047206A401C7A
:1017D0002062C01C206206E0206AFAE7D4E90121F9
:1017E00015F8010B9047761EF8D22046FEF785FFCC
:1017F000BDE8F0814E414E006E616E00494E4600DC
:10180000696E66003A2800D2303820F02002412A62
:1018100001D3A2F13700884201D34FF0FF30704767
:101820002DE9F047814616468AB0334878440DC802
:101830008DE80D0030487844801C03AC0DC884E866
:101840000D0041F69B300844372190FBF1F290FBEC
:10185000F1F5A5F1800501FB12041B3C02D56442A1
:10186000012000E00020DFF890A080460027FA4425
:10187000AAF1BE0A0DE0E00709D03246684607EB40
:1018800047010AEB810100F008FB8DE807006410B6
:101890007F1C002CEFD1184F7F44AC3F18E0E807C5
:1018A00014D007EB04100DF1180A90E80E008AE836
:1018B0000E00C068F04201D198190890324606A97E
:1018C00003A800F0EAFA03AB83E807006D10641C7C
:1018D000002DE4D132466946B8F1000F03A802D0CA
:1018E00000F0C7FA01E000F0D8FAC9E90001C9F830
:1018F00008200AB0BDE8F087E4B7010010B504463F
:10190000AFF300802046BDE81040FEF7CEBC0000DB
:101910004FF0013C50F8042B51F8043B9A4221D17E
:10192000A2EB0C03934313EACC1317D150F8042B0A
:1019300051F8043B9A4215D1A2EB0C03934313EAEE
:10194000CC130BD150F8042B51F8043B9A4209D127
:10195000A2EB0C03934313EACC13DBD04FF000004F
:10196000704700BFD01A01BAB1FA81F101F0180135
:1019700022FA01F0CB40C1F12001DBB2C0B2C01AA3
:101980002CFA01F3D11A914311EAC311E6D1704741
:101990005FEA400C08BF91F0000F4FEA8C234FEA3A
:1019A000C12243EA51514FEA1C5018BF00F5F040E4
:1019B0004FEA300018BF41F000415FEA6C5C00F074
:1019C0002980BCF1FF3F08BF40F080407047130CF6
:1019D00006BF12044FF0100C4FF0000C130E04BFA2
:1019E00012020CF1080C130F04BF12010CF1040CCD
:1019F000930F04BF92000CF1020CD30F04BF5200EE
:101A00000CF1010C11464FF00002A0F11F00A0EBF9
:101A10000C00704711F0004F08BF704731F00041D3
:101A20003FF4D5AF0B0C06BF09044FF0100C4FF07C
:101A3000000C0B0E04BF09020CF1080C0B0F04BFC5
:101A400009010CF1040C8B0F04BF89000CF1020C8E
:101A5000CB0F04BF49000CF1010CCCF12003A0EB2B
:101A60000C0022FA03F302FA0CF241EA030100F13E
:101A70000100704720F07F4C80EA030023F07F478D
:101A8000ACEB070303F57C5300F0004003F1FF03C8
:101A90002DE980494FEA154B09B44FEA144325EA72
:101AA0000B4E24EA03480FF2042606EB13274908DD
:101AB0003E785FEA320203FB0667C7F5000707FBC3
:101AC00006F64FEA54374FEAD64606F1020607FB00
:101AD000066CCCF1005C4FEA1C472CEA074C07FB74
:101AE00006F40CFB06F504EB15464FEA961634BFD8
:101AF00000204FF000404FEAD13706FB07FC4FEAC9
:101B00001C4C0CFB0BF7D21B03FB0CF761EB070122
:101B10000CFB0EF7B0EB074072EB17420CFB08F71B
:101B200034BFA2EB0742B2EB074261EB17414FEA29
:101B30000C444FEA910706FB07FC4FEA1C4C0CFBD8
:101B40000BF7B0EBC74072EB573203FB0CF734BF17
:101B5000A2EBC742B2EBC74261EB57310CFB0EF769
:101B6000B0EBC70072EB57720CFB08F734BFA2EB67
:101B7000C702B2EBC70261EB5771039F4FEA816165
:101B800041EA921104EBCC044FEAD1374FEA82626A
:101B900006FB07FC42EA90124FEA80604FEA1C4CB9
:101BA0000CFB0BF7D21B03FB0CF761EB07010CFBE3
:101BB0000EF7B0EB074072EB17420CFB08F734BF8F
:101BC000A2EB0742B2EB074261EB17414FEA8C559B
:101BD0004FEA910704EB9C2406FB07FC4FEA1C4CE0
:101BE0000CFB0BF7B0EBC74072EB573203FB0CF763
:101BF00034BFA2EBC742B2EBC74261EB57310CFBDB
:101C00000EF7B0EBC70072EB57720CFB08F734BF4E
:101C1000A2EBC702B2EBC70261EB577115EB4C2583
:101C20004FEA816141EA92114FEA82624FEAD1376D
:101C300042EA901206FB07FC44F100044FEA806080
:101C40004FEA1C4C0CFB0BF7D21B03FB0CF761EBB0
:101C500007010CFB0EF7B0EB074072EB17420CFBD1
:101C600008F734BFA2EB0742B2EB074261EB174122
:101C700015EB1C154FEA813141EA92414FEA82325D
:101C800042EA90424FEA80304FEA0C7644F1000479
:101C900048EA03434EEA0B484FF0000EB2EB080C43
:101CA00071EB030724BF624639464EEB0E0E4FF030
:101CB000000B0018524149414BEB0B0BB2EB080CE7
:101CC00071EB03077BF1000B24BF624639464EEBF4
:101CD0000E0E4FF0000B0018524149414BEB0B0B1D
:101CE000B2EB080C71EB03077BF1000B24BF6246DB
:101CF00039464EEB0E0E51EA020718BF46F00106B8
:101D000016EB0E7655F1000254F1000103D5BDE843
:101D10008901BDE80088BDE88901BDE80048B61921
:101D2000524141EB0101A3F10103704780807F7EA6
:101D30007D7C7B7A79787776767574737271717041
:101D40006F6E6E6D6C6C6B6A6A69686867666665F3
:101D50006464636362616160605F5F5E5E5D5D5C81
:101D60005C5B5B5A5A5959585857575656555555F2
:101D70005454535352525251515050504F4F4F4E52
:101D80004E4D4D4D4C4C4C4B4B4B4A4A4A494949A0
:101D900048484847474747464646454545444444E2
:101DA000444343434342424242414141002B26D4F3
:101DB000770021D01CB54FEA370703B44FF010006D
:101DC0004FF010014FF000000FBCBDE810400BF1C8
:101DD000010BBBF1010F08BF5FEA170722BF12F129
:101DE000010211F101014FF0004143F1000300F045
:101DF000004043EA00007047F9D35708DAE746EAA3
:101E0000064613F1400F4FEA16461FDD13F1200F6F
:101E1000DFBF16430A46002120335B42C8D0C3F11E
:101E2000200746EA064602FA07F74FEA164646EA50
:101E30000706C3F1200722FA03F201FA07F721FA95
:101E400003F14FF0000342EA0702B1E746EA020657
:101E500046EA06464FEA164646EA0106BCBF46EA8F
:101E60000646360C4FF000034FF000024FF0000121
:101E70009EE72DE9C048934630B491E8380007C882
:101E800031EA400C48BF34EA430C03D5FFF7F2FDBA
:101E9000FFF78CFFF0BCBDE800882DE9C0489346F1
:101EA00030B491E8380007C810F0804F08BF13F035
:101EB000804F03D100F005F8FFF778FFF0BCBDE8D4
:101EC000008820F07F4780EA030023F07F4C07EB77
:101ED0000C03A3F57C5300F00040A3F1FE0392F045
:101EE000000F00F0B38095F0000F00F077802DE92F
:101EF00001494FEA11404FEA144621EA004800FB2D
:101F000006FC24EA064708FB06F607FB08F800FB78
:101F100007F718EB06484CEB164C4FEA124B18EB40
:101F200007484FEA15464CEB174022EA0B4E0BFBD5
:101F300006FC25EA06470EFB06F607FB0EFE0BFB2A
:101F400007F71EEB064E4CEB164C4FF000061EEB4F
:101F5000074E4CEB174B18EB0B0840F1000018EB49
:101F60000E0B58EB000840F100008F1A4FF00001F3
:101F70003CBFC943661B14BFB5EB040C00213CBF3A
:101F8000C943F61B4FEA17444EEA8E0E27EA044572
:101F90004FEA1C4704FB07622CEA074C05FB07F7D6
:101FA0000CFB05F604FB0CFC16EB074642EB174254
:101FB00016EB0C4642EB1C421BEB060658EB0202EA
:101FC000414146EA9E0601D5BDE80189B619524154
:101FD00041EB0101A3F10103BDE801894FEA14457A
:101FE0004FEA114724EA054621EA074C05FB07F4AE
:101FF00006FB07F70CFB06F105FB0CFC11EB074198
:1020000044EB17444FEA124711EB0C4144EB1C44DC
:1020100022EA074C05FB07F206FB07F70CFB06F666
:1020200005FB0CFC16EB074642EB174216EB0C4681
:1020300042EB1C456A1854F1000148BF7047B619BD
:10204000524141EB0101A3F10103704795F0000FEC
:1020500037D04FEA11424FEA144721EA024624EAF8
:10206000074C02FB07F106FB07F70CFB06F402FB2B
:102070000CFC14EB074441EB17414FEA154714EBF6
:102080000C4441EB1C4125EA074C02FB07F506FB1B
:1020900007F70CFB06F602FB0CFC16EB074645EBBC
:1020A000174516EB0C4645EB1C42121951F1000185
:1020B00048BF7047B619524141EB0101A3F101033A
:1020C00070474FEA14454FEA114724EA054621EAD2
:1020D000074C05FB07F106FB07F70CFB06F24FF078
:1020E000000605FB0CFC12EB074241EB174112EB1B
:1020F0000C4251EB1C4148BF7047921841EB010163
:10210000A3F10103704770B504460025206880687C
:1021100000F00100F0B12068806820F00100216823
:10212000886006F033FA05460EE006F02FFA401BF1
:10213000022809D9A06A40F01000A062E06A40F0CD
:102140000100E062012070BD2068806800F001009D
:102150000028EAD10020F6E738B504460025002023
:1021600000902068806800F0010080BB20688068D3
:1021700040F0010021688860164800681649B0FBED
:10218000F1F0009002E00098401E009000980028B6
:10219000F9D106F0FBF9054613E006F0F7F9401B0C
:1021A00002280ED9A06A40F01000A062E06A40F058
:1021B0000100E06200BF002084F8240000BF01207D
:1021C00038BD2068806800F001000028E5D00020BC
:1021D000F6E70000E800002040420F00002800DC85
:1021E0004042704700BFFEE77CB5214C05462168A0
:1021F00031F8220F4A8D104408804888CA8D104457
:102200004880284602F0ECFA2168498CADF80010AD
:102210004618284604F09AF93044401EADF80400F0
:1022200002F024FB2168898CADF802100844401E9E
:10223000ADF8060068460DF0A1FE04E0284600F067
:10224000B3FA0DF05DFE0028F8D10A2D04D0BDF8D8
:1022500004002168401C4884206830F8221F428D09
:10226000891A01804188C28D891A41807CBD000095
:102270006401002010B50446012036490870364933
:102280000870364908703649087036490870364972
:10229000087036A12046FEF7E8F818B900202D494D
:1022A000087052E033A12046FEF7DFF818B900208D
:1022B0002A49087049E031A12046FEF7D6F818B93E
:1022C00000202549087040E02EA12046FEF7CDF8F9
:1022D00018B900202249087037E02BA12046FEF7EC
:1022E000C4F818B900201F4908702EE028A1204624
:1022F000FEF7BBF818B900201B49087025E026A19D
:102300002046FEF7B2F8E8B900BF00BF00BF00BF2B
:1023100000BFBFF34F8F00BF00BF00BF2048006861
:1023200000F4E0601F490843001D1D49086000BF1C
:1023300000BF00BFBFF34F8F00BF00BF00BF00BF93
:1023400000BFFDE74FF0FF3010BD022016490870B6
:102350000020F9E75400002056000020550000201E
:102360005700002058000020590000207573616755
:102370006500000065756C65720000006D70757415
:10238000656D70006164630074656D70000000002D
:1023900074696D650000000072657365740000006B
:1023A0000CED00E00000FA05AD0000202DE9F04141
:1023B00004460D4617460026032C15D10120484936
:1023C00008704849087048490870484908704849E9
:1023D00008704849087000F0A9F8474A47A1284604
:1023E000FDF7F0FF064676E045480078F8B9202C66
:1023F00012DB7E2C10DC4348D0F8000141490C541C
:102400000846D0F80001401CC1F800012C70761C71
:1024100001203B4908705EE00D2C5CD100F086F88D
:10242000354A36A12846FDF7CDFF064653E034482D
:102430000078012848D10D2C18D100203149D1F85D
:102440000011304A50541046FFF714FF40B100F01D
:102450006DF8294B2B4A2CA12846FDF7B3FF064601
:1024600031A12846FDF7AEFF064634E0202C17DBED
:102470007E2C15DC2348D0F8000180282BDA214877
:10248000D0F800011F490C540846D0F80001401C48
:10249000C1F800012C70761C0120194908701AE05F
:1024A0007F2C18D11748D0F80001002802DC00F07A
:1024B0003DF810E01348D0F80001401E1149C1F862
:1024C00000012C70761C06E00D2C04D116A12846C4
:1024D000FDF778FF06460020A8553E60BDE8F08174
:1024E0005500002056000020540000205700002016
:1024F0005800002059000020A8000020257300008B
:10250000AD000020F40A00200D0A2725732720695A
:1025100073206E6F74206120636F6D6D616E642E29
:10252000200D0A25730000000D0A00000020034959
:10253000C1F800010249087070470000F40A002049
:10254000AD0000207CB50CF0E1FE054600200090B7
:102550002B46044A06210190034801F0C3FC0446BF
:1025600020467CBD997201080CB1010810B50248E3
:1025700005F0F4F810BD0000FC05002010B502487D
:1025800005F0ECF810BD00003406002010B504681A
:1025900063604468102C04D10468A2600468E160A0
:1025A00003E00468A1600468E26010BD704710B5E4
:1025B000042005F033FE10BD10B5082005F02EFEF6
:1025C00010BD10B5102005F029FE10BD10B516F095
:1025D0005BFE0949096888420CD116F071FE074973
:1025E0000968401A064908600648006809680844F6
:1025F0000449086010BD00005C0000206400002059
:10260000680000206C00002006E02021034805F04F
:10261000B3FF642005F08BFDF7E70000000C0140DC
:1026200070B50446B3F5804F24D1F02696FAA6F68D
:10263000B6FA86F6D1E90005B54028434FF47F4647
:1026400096FAA6F6B6FA86F68D68B54028438D69E7
:1026500028434FF4702696FAA6F6B6FA86F6CD68A9
:10266000B540284354F82250054E3540284344F8DD
:10267000220003E06FF0704044F82200002070BD9B
:102680000000F0CF10B50246086852F8200020F094
:1026900001000B6842F823008868082822D14868A6
:1026A00040F040008B681843CB6818430B6918430F
:1026B0004B6918438B691843CB6918430B6A18435D
:1026C0004B6A18438B6A1843CB6A18430B6B184349
:1026D0000B6852F82330144C234018430B6842F81F
:1026E00023001FE0D1E901031843CB6818430B69AD
:1026F00018434B6918438B691843CB6918430B6A1D
:1027000018434B6A18438B6A1843CB6A18430B6B08
:1027100018430B6852F82330034C234018430B68CE
:1027200042F82300002010BD8100F7FF30B50346BA
:10273000F02595FAA5F5B5FA85F5D1E90004AC4088
:1027400020434FF47F4595FAA5F5B5FA85F58C68D9
:10275000AC4020434FF4702595FAA5F5B5FA85F500
:10276000CC68AC4020430C69641E4FF4700595FAA8
:10277000A5F5B5FA85F5AC4020434C69A41E4FF091
:10278000706595FAA5F5B5FA85F5AC4020438C69DE
:102790002043541C53F8244004F040442043541C6C
:1027A00043F82400002030BD10B504460A2812D09A
:1027B0000D2C14D002F03AF909480068C06901688C
:1027C000204688470748016809B120468847BDE888
:1027D000104003F06FB9BDE8104001F0D3BC10BD4C
:1027E00064010020900100201CB50024019401AC7C
:1027F000009400F0E7F81CBD2DE9FF4F83B081463F
:1028000006988A46A0EB0A08109E00200090A2EBD2
:1028100009043568934654EA080018D02046FFF7AB
:10282000DDFC07464046FFF7D9FC87420BDA20461D
:10283000444680464846D14682465846DDF818B0A0
:10284000069001200090002C07DD204606E007B02E
:102850004846BDE8F04F00F03BB96042A0420AD0C4
:102860004846D9466442C8F1000883464FF0FF3716
:10287000DDF818A000E001275148B8F1000F11D091
:1028800004EBD4714FEA610B01DACBF1000B4C4839
:102890000068807E88B3002F02DA30682044306000
:1028A00000257BE000990029016821D0897E11B1C3
:1028B0000027804615E007B05A4649465046BDE815
:1028C000F04F08F04DBA28466D1C13F083FC38B960
:1028D000D8F8000009EB0701406E42685046904767
:1028E0007F1CA742EFDD6D1E356007B0BDE8F08F9D
:1028F0008A7E1AB10027804617E019E0486E5A46D2
:102900005146036807B04846BDE8F04F18472846CF
:102910006D1C13F05FFC38B9D8F8001009EB070004
:10292000496E4A68514690477F1CA742EFDDDAE7BF
:1029300000250FE008FB05B090FBF4F101EB0A0065
:10294000009951B11E4A09EB05011268526E526896
:1029500090476D1CA542EDDDC7E7194909EB05035A
:102960000968496E4A6801461846F1E708FB05B058
:1029700090FBF4F101EB0A000190306838443060BC
:1029800013F028FC48B9009890B10D4809EB0501F7
:102990000068406E4268019890476D1CA542E5DDD5
:1029A0003068002F01DA20443060C01B30609CE7A3
:1029B000034909EB05000968496E4A680199EBE78C
:1029C000640100202DE9FF470F4640491646804626
:1029D00009680C981D460A7E012A1CD0A8EB060047
:1029E000791B50EA01031CD0A2F1010914F012FC7A
:1029F00000F58060824603F0C2FF00FB09F45046F8
:102A000003F0C2FF00FB09F1002C0CDAC4F50070E2
:102A1000801240420AE00090324639464046FFF7B5
:102A2000EBFEBDE8FF8704F50074A012002904DA6C
:102A3000C1F5007189124C4202E001F500718C125F
:102A4000002804DD411C01EBD171491003E000EBCB
:102A5000D0714910401E00EBD0704210002C04DDF4
:102A6000601C00EBD070401003E004EBD470401009
:102A7000641E04EBD47308EB0104ADF800403C186D
:102A8000ADF80240A8EB02045B10B21AADF80440A6
:102A9000ADF808203144FC1AEA1AADF80C102844AD
:102AA000ADF80A20ADF80E000023ADF806401A4636
:102AB0000421684600F07AF83946404610F0C8FB19
:102AC0002946304610F0C4FBABE70000640100204B
:102AD000064A13681A7E012A05D0521E02EBD272F2
:102AE000521000F005B85A6E526810476401002079
:102AF0002DE9F05F0646884640F2C32002FB00F154
:102B00004FF47A7091FBF0F702FB02F102EBD27006
:102B100001EB600B1446B118234A301B7F1C12686E
:102B2000526E13680A4641469847012538E000BFB7
:102B300005FB05F004FB040159451CDDBC4219DD11
:102B4000194B06EB050AA6EB05091B68AAF1010261
:102B500008EB04015B6E09F101001B689847124BFA
:102B6000AAF10102A8EB04011B6809F101005B6EE8
:102B70001B689847641E0C4B3219301B1B68924629
:102B800008EB05015B6E81461B689847064B524671
:102B9000A8EB05011B6848465B6E1B6898476D1CD7
:102BA000BD42C5DDBDE8F09F640100202DE9FF4F67
:102BB00043F6FF740F46664283B09B468146002170
:102BC0000BE000BF09EB8100B0F90200A04200DA7F
:102BD0000446B04200DD0646491CB942F2DB6748B4
:102BE0000068406900280DD0B0F906101A46A1EB24
:102BF0000B01B14200DA0E46B0F90200801AA04281
:102C000000DD0446B4E0DFF878A100200546CAF8EC
:102C1000000088E0781E854201DA6B1C00E000238A
:102C200009EB850C09EB8302BCF90200B2F9021032
:102C3000A04244D1A14215D139F92330059A39F97E
:102C4000251003EB020C4D4A05981268084404EB6A
:102C50000B01526E6045136801DA62462AE00246B3
:102C6000604627E02846A4464FF000087A1E0BE095
:102C700008B1401E00E0781E09EB8003B3F9023072
:102C8000634504D108F101089045F1DB2346A342D6
:102C900048D01A1B39F92500A1EB040C059B92EAD8
:102CA0000C0F09D4354A184404EB0B011268526E1C
:102CB00013680246984735E00DF01AFD32E0A14254
:102CC00030D001DBA04203DDA0422BDBA14229DC96
:102CD000E04688420ADC0346A04223DC0846A142C3
:102CE00020DBB8F900C0B2F9001008E00B46A142A1
:102CF00018DCA04216DBB2F900C0B8F90010E21AE5
:102D0000A1EB0C0151430029A0EB030202DD01EB12
:102D1000620102E0A1EB6201491CC01A91FBF0F0D4
:102D20006044C9E76D1CBD42FFF674AF0598009082
:102D300004EB0B00019000208046054613E011498A
:102D4000B8F1000F31F915A009D0009901EB0A0282
:102D500008440A490968496E0B680199984788F048
:102D6000010850466D1C064909688D42E7DB641C6A
:102D7000B4427FF748AF07B0BDE8F08F6401002090
:102D8000B4030020180F002010B5002002F068FBEB
:102D90006FF07F4002F06FFB012002F0C7FB0020C4
:102DA00002F0D2FB002002F0DFFB002002F074FBF7
:102DB0000448006802F07CFBBDE81040002002F0EF
:102DC00087BB00006001002033B583B004001BD036
:102DD00001F02CFE204600F0B1FE0190456E01A8E6
:102DE00000F000FF049800F0A9FE0090846068469F
:102DF00000F0F8FE042204A9284600F017FF204640
:102E00000CF0D6FC02F056FE05B030BD33B583B0F1
:102E100004001BD001F00AFE204600F08FFE019056
:102E2000856E01A800F0DEFE049800F087FE009099
:102E30008460684600F0D6FE042204A9284600F00B
:102E4000F5FE20460CF0B4FC02F034FE05B030BDB7
:102E50002DE9F04104460025D4E90007B0F5407F94
:102E600000D10125214638460BF061FD064615B11B
:102E7000384611F0AEFF002E2FD02068052806D06E
:102E80000B280ED00F2806D0262821D10EE0384678
:102E900011F09FFF1CE03846E168BDE8F04112F0F8
:102EA00059B93846BDE8F04112F07FB8E06805280E
:102EB0000ED138460CF036FBA168884205D0384662
:102EC0000CF020FBA168884202D1606812F075FB0B
:102ED0002046BDE8F0410CF0DFB8BDE8F081F0B568
:102EE00085B0B0F90850468A84690296CDE903544A
:102EF0000027CDE90017B0F90C10B0F91050B0F967
:102F00000E40B0F90A00194410442B46224600F046
:102F100003F805B0F0BD00002DE9F04F85B09846EC
:102F2000DDE90E5691468A468346109F129C01F0B9
:102F30007DFD18486C34CDE90204CDE900564346C6
:102F40004A46514658460BF0EFFF04001BD000F0F4
:102F5000AAFE054600F0A7FE0646204600F0EEFD5C
:102F60000490C0E91956002211990BF017FE04983D
:102F7000302209493430FDF733FB0498A0F878700B
:102F800004A800F02FFE02F095FD05B02046BDE834
:102F9000F08F0000512E0008C401002013B582B04C
:102FA000044601F043FD204600F0C8FD009060B1EA
:102FB000406A00F0C3FD01460190022303AA009875
:102FC00000F01FF901A800F00DFE684600F00AFEAF
:102FD00002F070FD1FBD00002DE9F04385B01D46D5
:102FE00090460F46814601F021FD2C2000F0C9FCDF
:102FF000060024D0780000F0C4FC04000ED0B8F124
:10300000000F0BD055B1204600F098FD6A004146F4
:103010000090FDF75EFA684600F0E4FD304600F0EF
:103020008DFD0A49029000F10C02446282E8A2027E
:10303000074901600749416002A800F0D3FD02F092
:1030400039FD05B03046BDE8F0830000C1480108F5
:10305000FF5201083B5001082DE9F84398461546F8
:103060000E46074601F0E2FC302000F08AFC040026
:1030700014D000F063FD0090C0E9057685840A4A0B
:103080004FF07E51C0F81C808162D2E90012C0E985
:10309000031206490160684600F0A4FD02F00AFD33
:1030A0002046BDE8F8830000F4010020D753010852
:1030B000F8B50D4606004FF0000415D001F0B6FC3F
:1030C000304600F03BFD0090806A2946044617F028
:1030D00081F804D00098856280680CF069FB68462E
:1030E00000F080FD02F0E6FC2046F8BDF8B50D4684
:1030F00006004FF0000411D001F098FC304600F0BB
:103100001DFD0090C46AAC4203D0C56280680CF01B
:103110004FFB684600F066FD02F0CCFC2046F8BD8F
:10312000F8B50D4606004FF0000411D001F07EFC0A
:10313000304600F003FD0090C469AC4203D0C56185
:1031400080680CF035FB684600F04CFD02F0B2FCE4
:103150002046F8BD2DE9F8431D46DDF820801646CF
:103160000F46040015D001F061FC204600F0E6FC9B
:103170000090C0F860804765C0E91665684600F0B9
:1031800031FD204611F025FE20460CF011FB02F027
:1031900091FCBDE8F883F8B50D4606004FF0000439
:1031A00011D001F043FC304600F0C8FC0090846C64
:1031B000AC4203D0856430460CF0FAFA684600F061
:1031C00011FD02F077FC2046F8BDF8B50D4606006B
:1031D0004FF0000413D001F029FC304600F0AEFCA3
:1031E000009090F86C40AC4204D080F86C503046AF
:1031F0000CF0DEFA684600F0F5FC02F05BFC2046BD
:10320000F8BD2DE9F041044680681D4617460E467C
:10321000002826D0D4E9040290420ED1521E6A43FF
:1032200071193046FDF79AF920692A46401E05FBC0
:1032300000603946FDF792F90EE005FB0013401CD3
:1032400020612A4639461846FDF788F9E16819B128
:103250002046BDE8F0410847A068BDE8F04100F015
:1032600002B8BDE8F08110B58AB0044600F066FCF3
:1032700009A904AACDE9002105AB089006AA07A96F
:1032800011F02FF808A800F0ADFC02A920460CF0C0
:10329000ADF8BDF8080007990844ADF80800BDF87E
:1032A0000A0006990844ADF80A00BDF80C0005991B
:1032B000401AADF80C00BDF80E000499401AADF8A4
:1032C0000E0002A920460CF033FA0AB010BD70B50A
:1032D0000C46054600F0F2F8A8682168C1626168F2
:1032E0000163A1684163490707D5D0E90021C0E91E
:1032F0000012D0E90221C0E90212A189818421696A
:10330000002903D001DC4FF00001016270BD2DE9FE
:10331000F0411E4617468846054600F0CFF8AC68D7
:103320006822414604F58670FDF75AF92846B847E9
:103330002846B047286980688047A062BDE8F081D0
:1033400010B5044600F0BAF8A0680C49C0F8AC10FB
:103350000B49C0F8A8100B49C0F8B0100A49C0F8D2
:10336000B8100A49C0F8B41030F8261F21F0030144
:1033700020F8161B0649816510BD0000AD620108EA
:103380000164010875620108B75C01089F5C0108CF
:10339000A561010810B5044600F090F8A468104833
:1033A0001021C4F8E4000F48C4F8E8000E48C4F83F
:1033B000EC000E48C4F8F0000D48C4F8A0000D4819
:1033C000C4F8A400D4F8C400C4F8FC00D4F89420D5
:1033D000204690471020A0630748606410BD00009D
:1033E00025240108FD350108FD3300082D350008AE
:1033F000815C0108E5690108D4C40108F8B5846856
:1034000015460F4694F8260080074CD5D4F80031B5
:10341000204698470646D4F804312A4639462046C5
:103420009847D4F8983005461BB100220121204668
:1034300098472069B04201DD012000E00020A16929
:10344000B14201DA012100E0002108436169A9428B
:1034500001DD012100E000210843E169A94201DA10
:10346000012100E0002108430AD060680022401ECC
:1034700000902368D4F8A870114620465B1EB84718
:10348000D4F8AC302A46314620469847D4F8A010EC
:1034900020468847D4F8983005466BB101220021B8
:1034A0002046984708E0D4F8AC3020469847D4F836
:1034B000A0102046884705462846F8BD70B504464A
:1034C0008068002812D14FF4BA75284600F0B0FA8F
:1034D0002A460021A06003F0E0F9A0680221C1841F
:1034E0000121046401620249C0F8081170BD0000A6
:1034F000F534000810B590B0044620220A49684609
:10350000FDF76EF808492022203108A8FDF768F879
:10351000606B5DF82010C4F8001108A951F8200074
:10352000C4F8040110B010BD10B201082DE9F84331
:1035300084689846154694F826000F46800740D5C3
:10354000D4F80031204698470646D4F804312A467C
:1035500039462046984705462069B04201DD0120E2
:1035600000E00020A169B14201DA012100E0002160
:1035700008436169A94201DD012100E000210843FF
:10358000E169A94201DA012100E0002108430AD0E3
:1035900060680022401E00902368D4F8A87011468D
:1035A00020465B1EB847D4F8AC302A463146204648
:1035B0009847D4F8A42001B041462046BDE8F04326
:1035C0001047D4F8AC30F2E72DE9F04FDFF828B11E
:1035D00091B04FF0FF35DBF80030B3F922100691BF
:1035E000DE69B3F924A0F469A189814206D8E28991
:1035F000824203D3471AD4F8008012E0D4E9018153
:10360000002970D00A8882426DD84D8885426AD3DD
:10361000801A82B2486800EB8200B0F90070B0F9FD
:103620000250781C5FD0307EA27C014600FB02F97C
:10363000207CCDE90710B3F92A60304607F03EFE42
:10364000C0B20E90DBF8001007FB0980A37C8A6BE8
:103650000127CDE90402CDE90273C869089AC17E49
:10366000807ECDE90001DDE90603514607F016FA38
:10367000681C18D046F0020007F020FEDBF80000BE
:10368000A37C05FB0981826BCDE90273CDE90412AD
:10369000C069089AC17E807ECDE90001DDE906039C
:1036A000514607F0FBF9DBF800005D46C069417E3A
:1036B000007E814214D9022E12D086F0040007F059
:1036C000FDFD2868C069027EC37E857E02FB03A1E2
:1036D000437E089A0698534402FB050207F06AFBF2
:1036E0000E9807F0EBFDDBF80000627C418C114482
:1036F000418411B0BDE8F08F6401002004480068E7
:10370000C069C06909B1027C0A60407C7047000052
:1037100064010020022008807047C06982898A42C3
:1037200002D8C2898A4210D2806880B102888A4257
:103730000DD843888B420AD3406800EB8100A0EB90
:103740008200B0F90000002801DB01207047002052
:10375000704700002DE9F0432F4C034687B02068E6
:103760001946B0F92A80C069C06900F082F80028C3
:103770004ED041680088181A01EBC0054046AE786B
:1037800007F09CFD814620686A680123816BCDE9C2
:103790000236CDE90421C169CB7E8A7ECDE90023C2
:1037A0000B7EB0F924102A78B0F9220007F076F9E0
:1037B0002068C069477E067EB7421DD9C07E474358
:1037C0004643B8F1020F17D001F035F8804600F0FB
:1037D000FBFF01F050FE21682A78CB69B1F9220085
:1037E000B1F92410DB7E02FB0302CB19314407F050
:1037F000E1FA404601F03FFE484607F05FFD2068D1
:103800006A78C369B0F922109B7E02FB03114184E0
:1038100007B0BDE8F08300006401002030B50E4C15
:1038200005460B4620682946C069C06900F021F8AA
:10383000002810D04168008824682A1A0120E46911
:1038400000EBC200085CA47E6043002B03D011F89B
:1038500032106143196030BD6401002001200880EE
:10386000704700B5C06900F004F8002800D00120BE
:1038700000BD06E002888A4202D842888A4202D20B
:1038800080680028F6D1704770B50025124C19E009
:1038900020691249C5EB051600EBC60070220968C5
:1038A000001DFCF79DFE2069002140F8361000EB5A
:1038B000C60000F10C018161011D0A1DC0E90F1253
:1038C0006D1C4164A0688542E2DB01F0AFF8BDE801
:1038D000704002F0EFB80000E00200206401002018
:1038E00070B50F490D480860084602F05DFF0C4CAA
:1038F000143CA068C0EB0010C500284600F098F802
:103900002A460021206102F0C8FF4FF0FF302060FE
:1039100002F012F9BDE8704010F04CBDF5500108FE
:10392000F4020020F8B50C0005460FD001F07EF837
:10393000204600F017F8060010D000F0FFF82246ED
:1039400000902DB12946FCF7C4FD04E00020F8BD2D
:10395000002102F0A2FF684600F044F902F0AAF844
:103960003046F8BD10B5040009D001F05FF82046DC
:103970000DF06CF9044602F09DF8204610BD0020C1
:1039800010BD38B5054601F051F82846FFF7EAFFAB
:10399000040009D000F0D2F82A460021009002F07D
:1039A0007CFF684600F01EF902F084F8204638BD1E
:1039B000024A106021F0030050607047E40D0020BF
:1039C00010B5040016D001F031F80B48406B10F828
:1039D000341059B1022909D2042101EBC401415824
:1039E00048680CF0A1FE204612F036F9BDE8104000
:1039F00002F060B810BD0000240D0020002805D0A2
:103A0000034AD16B016001B14860D0637047000088
:103A1000240D002010B5044601F008F82068FFF7D7
:103A2000CFFF00202060BDE8104002F043B8000046
:103A30002DE9F041044610F05FFE2848E41C24F014
:103A40000305016C2D1DA94200D90D46C46B13E07E
:103A500054F8042CAA420ED184B1216809B16268DD
:103A60004A60616809B122680A60C26BA24231D122
:103A70002168C1632EE02468002CE9D18046816B67
:103A8000C0680F1857F8040C3E1A306838B100208F
:103A900012F098F957F8040C3E1A3068D0B97068E3
:103AA000A84217DB3044441B3046241D12F042F973
:103AB000D8F80C10491BC8F80C10D8F81410294479
:103AC000C8F814107068401B02D031460CF02CFE70
:103AD00044F8045C2046BDE8F0810000240D00207D
:103AE00010B5002410F008FE0C490F2001EBC002B5
:103AF000526C1AB101EBC000406C08E0401EF5D5D5
:103B000008E04168A14200D90C46806810B1806885
:103B10000028F6D1A4F10C0010BD0000240D0020F7
:103B2000002138B10449042202EBC000496B085857
:103B300041680C3908467047240D00200549CA69C0
:103B4000521CCA61496B01EBC0010A78521C0A7011
:103B500000F060B8240D00207CB506460C460846EF
:103B6000FFF700FF050020D0FEB13046FFF7D8FF79
:103B7000A04200DA044600F059FF2846FFF7DEFFB6
:103B800000903046FFF7DAFF014601902246009888
:103B9000FCF79FFC684600F025F801A800F022F829
:103BA0003046FFF70DFF01F085FF28467CBD000081
:103BB00010B500F03BFFFFF793FF64220849B0F512
:103BC000800F04D990FBF2F4086A444303E0096AC9
:103BD0004143B1FBF2F401F06DFF204610BD00003F
:103BE000240D00200A4902684B6B52F8082C03EBA5
:103BF000C2021378022B03D3CB690BB15B1ECB61DE
:103C00001178491E117000210160084670470000BC
:103C1000240D0020002806D00349042202EBC00036
:103C2000496B085808307047240D00202DE9FC41ED
:103C30004FF000060B465FEA000834462BD032B145
:103C400011461846FFF76EFE060000D101244046DB
:103C5000FFF774FF0090078845686846FFF7C2FFCA
:103C6000CCB9B9002846091DFFF776FF050015D02D
:103C7000FFF764FF019040F8276001A8FFF7B2FF4B
:103C80004046FFF75BFF009045600188491C0180BA
:103C90006846FFF7A7FF2046BDE8FC813046FFF7E6
:103CA0008FFE0124F7E70820FFF76BBE7CB5050007
:103CB00023D0FFF743FF00904068C0B1FFF73EFFFD
:103CC0000024019005E0019800EB8400FFF7A2FEBC
:103CD000641C00980088A042F5DC01A8FFF782FF71
:103CE0000098001DFFF796FE0099002008806846A6
:103CF000FFF778FF2846FFF763FE7CBD38B5002448
:103D000030B1FFF71BFF009004886846FFF76AFF99
:103D1000204638BD38B50D46002448B1FFF70EFFE8
:103D20002946009000F006F804466846FFF75AFF5F
:103D3000204638BD38B50D4601880024A94209D96E
:103D4000406838B1FFF7FAFE009050F82540684609
:103D5000FFF748FF204638BD70B50C46054600F019
:103D60009BFEC1B223462846BDE87040002200F009
:103D700001B80000F0B52D271C68B0F1004F08D045
:103D8000002600280DDA651C1D60277040420124C2
:103D900008E0651C01261D606FF000402770491E79
:103DA00001E00024091BC9B22AB3491EC9B222E0AE
:103DB0000C46491EC9B2944205D1124C27781C68A2
:103DC000651C1D602770104C54F8215090FBF5F4D1
:103DD000E4B20A2C11D804FB150011B90EB1641C11
:103DE000E4B20A2C02D10124491CC9B21D686F1C1F
:103DF00030341F602C700029DAD119680020087057
:103E0000F0BD00005801002028C5010810B50028A9
:103E100007DD0A682B24531C0B601470096800220C
:103E20000A7010BD10B5C2B2CBB2D21A00D5524240
:103E300093B25B43C0F30722C1F30724121B00D5E2
:103E40005242000C92B2A0EB114002FB023200B2CF
:103E5000002801DA404200B280B200FB002010BD11
:103E600010B50021084600F067FD43F6FF7250428E
:103E7000BDE8104013460146AFF300802DE9FC4138
:103E80001C4615460E46074600F0D0FD042007F0FC
:103E900015FA80461248C068C16C006D0F44064494
:103EA0000D440444ADF80070ADF80450ADF8026064
:103EB000ADF8064068460CF061F807E023462A4654
:103EC0003146384606F076FF0CF01AF80028F5D196
:103ED000404607F0F3F901F0EDFDBDE8FC8100007C
:103EE000580100202DE9F8431C00DDE9089816462A
:103EF0000F46054602D10BF009FA044600962E68DB
:103F000043464A4621462846B047060039D00BF0C2
:103F1000F2F98146698A30460AF09DFD30460BF081
:103F2000D5FE48460BF0D2FE4FF000080CE000BF73
:103F3000CDF8008055F81CCF00231A464946284684
:103F4000E04700B30BF0C2FE7F1E002FF0DC1D2106
:103F500048460BF090FD601C12D000F067FD0BF09E
:103F60000FFA30B1FFF756FE8469B44201D0200049
:103F7000F8D1B44202D030460BF01AFE01F09AFD9F
:103F80003046BDE8F88330460BF0BEF80020F8E775
:103F90002DE9F0411C4616460D460746022B02DB72
:103FA0000020BDE8F0811C20FFF742FD0028F8D07A
:103FB0000DB105610AE0094A52F8241009B905E07B
:103FC00011460A68002AFBD1096901618461868271
:103FD000002101604160C0E90217E2E77C01002096
:103FE00070B51D46FFF7D4FF040009D000F00EF8AD
:103FF000E068006820B90348006800EB850084652C
:10400000204670BD64010020FFF7F8BC70B590B386
:104010008269022A30DA1E4C54F8221019B944F889
:10402000220032E019464B68002BFBD106E0CB683A
:10403000C5681B682D68AB4203DD09680029F6D10D
:104040001AE0C1B1CB68C6681B683668B3420CD1B0
:10405000838A012B05D008E01946DB681B68AB4258
:1040600003DB0B68002BF7D129B14B6833B1186023
:104070004A68426004E0FFE7012070BD44F8220076
:104080004860884200D100210160002070BD00001E
:104090007C01002010B503E00468FFF7B7FF20465D
:1040A0000028F9D110BD12F0F7BB00002DE9F04156
:1040B0000026DFF834800D4F354600BF58F8254004
:1040C00009E0E0680068385C20B1204612F0E4FBAB
:1040D000266026462468002CF3D16D1C022DEDDBF2
:1040E0003046BDE8F08100007C010020BCB1010831
:1040F000022801DB00207047054951F8200004E048
:10410000C16809680029F6D000680028F8D1704716
:104110007C01002010B5044600F088FC2046FEF724
:1041200063F8BDE8104001F0C5BC000070B514464E
:104130000D46064600F07AFC0548016830464D847D
:104140008C84FEF751F8BDE8704001F0B3BC00006C
:104150006401002070B50C46054602E02846FFF7D2
:10416000D9FF641EFAD570BD1FB503ABCDF80CD0D6
:10417000FFF700FE684600F02DF81FBD00220DF08D
:104180009FB9000010B500F051FC00F061FB05493B
:1041900009688A8C10448884088C4884BDE81040E3
:1041A00001F088BC640100207FB50C461546CDF8AF
:1041B0000CD003A9FFF72AFE002801DD641EE4B23B
:1041C00003AB2A462146FFF7D5FD684600F002F80A
:1041D0007FBD00002DE9FC4706005FD000F026FC03
:1041E00000F036FB3C4C81462068B0F9228000F09C
:1041F0006DFB216807468A8CD01B888441E000BF94
:1042000047F6FF71304602F069F9824601463046B2
:1042100002F03AF92168054691F82C0000F00300FD
:10422000012841D002283BD000204A8C101A488433
:10423000ADF800006A1E1044ADF80400888CADF89B
:104240000200A9F101010844ADF806006A46514692
:10425000304601F01FFE2168BDF8020088845146F7
:10426000304601F015FB064430780A281ED00D2890
:104270001CD0BDF80000216828444884307818B16B
:10428000761C30780028BBD12068818C3944818429
:10429000818D21F00301818501F00CFCBDE8FC87D4
:1042A00005EBD5704010C0E72846BEE7206890F8BF
:1042B0002C1001F0030101290BD0022909D0018C37
:1042C000418431780A29D9D1828C02EB0901818499
:1042D000D4E7A0F82280F4E76401002070B514460A
:1042E0000D46064600F0A2FB05480068458484841C
:1042F0003046FFF76FFFBDE8704001F0DBBB000008
:10430000640100202DE9FC411F4690460D46060041
:104310004FF000041AD000F089FB65B128460BF07D
:10432000C5FC040007D002462946684602F043F95E
:1043300068460BF0BBFC3B4642462946304601F03E
:1043400001FE20460BF0B2FC01F0B4FBBDE8FC819D
:104350002DE9FF4F87B09046894607007DD000F0D9
:1043600065FBD9F80040D9F8045021B228B2401AB0
:10437000401C029000F06CFA064618F00C0F1ED09C
:1043800038460A9A029901F09FFB08F00C010429B3
:1043900004D0082902D00C2911D104E0291400FB13
:1043A0001610401C09E02114C1EB254200FB162029
:1043B000401C00EBD07001EB600060F31F444846E6
:1043C0000BF074FC5FEA000B09D00246494604A8D2
:1043D000CDE9044502F0EFF804A80BF067FCA6F164
:1043E000010A38460A9A029902F026FA03900AEB6B
:1043F000244060F31F45CDE900453846039902F09B
:1044000043F818F003010ED001292CD002290ED157
:10441000B9F90420B9F90010521A101A00EBD07043
:1044200001EB600001E0B9F80000ADF800006A4659
:104430003846039901F02EFD38460A9A029902F097
:10444000F1F9074406EB244060F31F443878002854
:10445000C7D158460BF02AFC00E001E001F02AFB2E
:104460000BB0BDE8F08FB9F80410081A401CDCE767
:104470002DE9F04F87B09B46DDE9109892460C4637
:10448000054600F0D3FA16480168C86C096D471953
:104490000E1900EB0A0501EB0B04ADF81070ADF836
:1044A0001450ADF81260ADF8164004A80BF066FD8C
:1044B00088B1DFF830B04FF0000ACDE90098CDE9BF
:1044C00002BA2B462246394630460EF00DFC0BF060
:1044D00017FD0028F1D101F0EDFA07B0BDE8F08F2B
:1044E0006401002061AD00082DE9F04F87B09B46C4
:1044F000DDE9109892460C46054600F097FA1648FA
:104500000168C86C096D47190E1900EB0A0501EB2B
:104510000B04ADF81070ADF81450ADF81260ADF8A2
:10452000164004A80BF02AFD88B1DFF830B04FF038
:10453000010ACDE90098CDE902BA23462A46314660
:1045400038460EF0D1FB0BF0DBFC0028F1D101F076
:10455000B1FA07B0BDE8F08F64010020A1AC0008FB
:104560002DE9FE4F9846DDE90D6514468A468346DF
:104570000C9F00F05BFA0E480068C16C01EB040967
:10458000016D002001EB08040BF0F8FC0AE0009735
:10459000CDE9016523464A46514658460EF064FC73
:1045A0000BF0AEFC0028F2D1BDE8FE4F01F082BA5C
:1045B000640100202DE9FC4114460D46064600F03A
:1045C00035FA114F3968C86C096D054404440E442E
:1045D000ADF80050ADF80440ADF80260ADF80660EB
:1045E00068460BF0CBFC08E0386822463146406E46
:1045F0000368284698470BF083FC0028F4D101F0AB
:1046000059FABDE8FC810000640100202DE9F04169
:104610001C4615460E46074600F008FA0C4801688D
:10462000C86C096D074405440E440C4400200BF08F
:10463000A5FC07E023462A4631463846FEF7D4F863
:104640000BF05EFC0028F5D1BDE8F04101F032BA74
:10465000640100207CB50C46064600F0E7F90F4DDA
:104660002868C16C006D0E440444ADF80460ADF8D8
:104670000060ADF80640ADF8024068460BF07EFCE5
:1046800007E028682146406E4268304690470BF0AC
:1046900037FC0028F5D101F00DFA7CBD6401002043
:1046A0002DE9FC411C4616460D46074600F0BEF9B2
:1046B0001A480168087ECA6C096D17440D440C4401
:1046C000401E391A1644ADF800103118ADF8041028
:1046D000291A2044ADF80600ADF8021068460BF028
:1046E0004DFC15E032462946384606F0D9FA3246E6
:1046F0002146384606F0D4FA621E691C384606F098
:104700002FFB621E691C304606F02AFB0BF0F8FBFB
:104710000028E7D101F0CEF9BDE8FC81640100205A
:104720007CB514460D46064600F080F90F48006837
:10473000C16C006D0E4405440444ADF80060ADF852
:104740000460ADF80250ADF8064068460BF016FC68
:1047500006E022462946304606F002FB0BF0D0FB6D
:104760000028F6D101F0A6F97CBD0000640100200C
:1047700010B5002400E0012400F004F80028FAD16C
:10478000204610BD094810B50068002410B18047CC
:1047900000B101240AF02EFD00B101240448006894
:1047A00010B1804700B10124204610BD88010020CF
:1047B00084010020034951F82000C1688A6A082159
:1047C000104700007C01002010B500F02FF906F022
:1047D00021FB06F0BFFB044601F06CF9204610BD3A
:1047E00010B5044600F022F9054800210068C069B0
:1047F000426820469047044601F05CF9204610BD0F
:104800006401002070B50C46054600F00FF906481B
:1048100021460068C069426828469047044601F076
:1048200049F9204670BD000064010020002801D035
:104830000AF03EBD704710B500F0F8F806F0F2FA45
:1048400006F088FB044601F035F9204610BD000053
:1048500010B500F0EBF804480068C069447E01F030
:1048600029F9204610BD00006401002010B500F0B9
:10487000DDF801F0FFFD044601F01CF9204610BDF3
:1048800010B500F0D3F803480068847E01F012F9F7
:10489000204610BD6401002070B50C46054600F0AE
:1048A000C5F82146284601F043FEBDE8704001F0FE
:1048B00001B910B5044601F02DFE01462046BDE8C1
:1048C000104001F0E1BD01F032B9000010B5002444
:1048D00000F0ACF80B48006890F82C1001F00C01C7
:1048E000042904D0082906D00C2907D103E0C069A7
:1048F000047E641E02E0C069007E440801F0DAF81C
:10490000204610BD64010020417EC07E48437047B0
:10491000017EC07E48437047024951F8200000697B
:10492000006870477C010020024951F820000069AE
:10493000406870477C01002070B50D46044600F0C9
:1049400075F820460FF016FE044628460FF01AFEB2
:10495000044301F0AFF8204670BD0000134810B5C5
:10496000016821F0010101601148012181601149B4
:10497000016000681049884200D0FEE701F0BAF9F2
:104980000E492E20087001F0D6F80D480FF07CFE7D
:1049900012F0CEFD04460021084600F0A7FD0AF003
:1049A0005DFEFEF771FF204610BD0000002000E014
:1049B00000300240C2A507F4CDB5E8B5580100208B
:1049C000F00D00202DE9FC411C4615460E46074619
:1049D00000F02CF8012000F05FFD804612480068CE
:1049E000C16C006D0F4406440D440444ADF80070E2
:1049F000ADF80450ADF80260ADF8064068460BF023
:104A0000BDFA07E023462A463146384606F0D2F979
:104A10000BF076FA0028F5D1404600F03DFD01F09C
:104A200049F8BDE8FC8100006401002070B5184C15
:104A3000E06820B101F077F86168884204D001F0A5
:104A400091F801F070F86060E068401CE0600128B7
:104A50001CD10FF0AFFC05462068854216D0002817
:104A600013DBFFF723FB01462068C0EB001220692F
:104A700000EBC2025167C5EB0511064A00EBC1000D
:104A8000011D1160406FFFF705FB256070BD000040
:104A9000E00200206401002010B5011E01DD024685
:104AA00000E04A42064B012053F82040944202D8CD
:104AB000401C0A28F8DB002900DA401C10BD000069
:104AC00028C501081CB5040004D10E480068046E16
:104AD000002C16D0FFF7AAFF2046FFF72FF8009012
:104AE00044696846FFF77EF84CB12046FFF726F888
:104AF000019081688968884701A8FFF773F800F082
:104B0000D9FF1CBD6401002001490A4600F002B82B
:104B100001F0FFFF2DE9F04387B015460C465FEA30
:104B2000000846D0FFF782FF002000F0B5FC814668
:104B300021480068066E4046FFF700F800900068C4
:104B4000806900F075FC074640F6FF70C44204D14E
:104B50000098B0F90440B0F906500098611E02892F
:104B6000ADF804401144ADF808104189681E0844AE
:104B7000ADF80650ADF80A000AF02AF96846FFF7CA
:104B800031F801A80BF0FAF906E02A462146404622
:104B900000F070FB0BF0B4F90028F6D1384600F0B5
:104BA00047FC304600F078F9484600F075FC00F00C
:104BB00081FF07B0BDE8F083640100202DE9FE4FBE
:104BC000984691468A46834600270C9EFFF72EFFA3
:104BD000174818490068407C51F82040E16809688E
:104BE000042903D02468002CF8D100E014B9FFF7A1
:104BF0007FFA04460121E068C26A2046904705001A
:104C000011D02469A0688047401C02D10A4C46F0AC
:104C100001060096CDE9015443464A46514658469E
:104C200000F0CEF9074600F045FF3846BDE8FE8F9C
:104C3000640100207C01002068C5010838B504002B
:104C40001CD0FFF7F3FE0E480068006EA04201D1B1
:104C500000F0E0FB2046FEF771FF0090406908B1CC
:104C600000F011FF00980068FFF7CEF96846FEF7E4
:104C7000B9FF2046FEF7A4FE00F01CFF38BD00007F
:104C8000640100202DE9FF4F0746464883B099464E
:104C90000068DDF840B08A46447C4348005701284C
:104CA000204606DD06F004F98046204606F00CF9A1
:104CB00005E006F0EBF88046204606F0EDF80446E5
:104CC00017B302A901A8FFF7E7FDB7F90060002EAE
:104CD00000DA0026B7F90250002D00DA002501990C
:104CE000B7F904004144491E10F008F980460298C3
:104CF0000119B7F90600491E10F000F9A8EB0602E9
:104D0000441B521C641C02E0002635464246B9F1A1
:104D1000000F01D1C4F10009002A01DD002C03DCE1
:104D2000002007B0BDE8F08F4B4629463046CDF84D
:104D300000B0FFF743FF5FEA000909D000F066F812
:104D40008046484600F0A8F80027DFF860B01FE072
:104D50005146059888470120E3E7E11B414502DA07
:104D6000484600F07DF83FB1EA193146484600F068
:104D7000BBF84846FFF7A6FE514605988847DBF882
:104D8000001009B1002088474846FFF7BDFE4744A0
:104D9000A742E2DB4846FFF751FF002000F07CF815
:104DA000BEE70000640100209C0100201C030020DD
:104DB00038B505004FF0000411D0FFF737FE284644
:104DC000FEF7BCFE0090006800698068804706F02E
:104DD00031FC04466846FEF705FF00F06BFE2046F6
:104DE00038BD38B504000ED0FFF720FE2046FEF790
:104DF000A5FE00F1180400906846FEF7F3FE00F0EF
:104E000059FE204638BD002038BD000038B50446A4
:104E10000025FFF70BFE1CB908480068046E44B17A
:104E20002046FEF78BFE0090B0F90A506846FEF768
:104E3000D9FE00F03FFE284638BD00006401002086
:104E400070B50546002428460CF0E0F9641C18B142
:104E5000BDE8704000F07AB8052CF4DB70BD0000AE
:104E600038B50C46050004D10A480068056E002DCF
:104E70000FD0FFF7DBFD2846FEF760FE0090B0F98B
:104E80000A10A14200DD44816846FEF7ABFE00F047
:104E900011FE38BD64010020F8B50546FFF7C6FDD8
:104EA000104E3068046ECDB10CB100F0B3FA0AF0C8
:104EB000E3F82846FEF742FE009031680D66006870
:104EC000FFF7A4F86846FEF78DFE06F03FFA06F0FD
:104ED000D5F900BF00F0EEFD2046F8BD00F09AFACB
:104EE000F8E70000640100207CB515460E4604007A
:104EF00004D115480068046E002C24D0FFF796FDFD
:104F00002046FEF71BFE2DB20090C58034B284808F
:104F100006F0B4F90098406980B1FEF70FFE009AE0
:104F20000190B2F908108180B2F90A20C28011B153
:104F30000AB10480458001A8FEF754FE6846FEF7DA
:104F400051FE00F0B7FD7CBD6401002001490A4616
:104F500000F002B801F0FFFF7FB515460C460600D1
:104F60002DD0FFF763FD3046FEF7E8FD40F6FF71F8
:104F70000190CC4203D1B0F90440B0F90650028947
:104F8000611E1144ADF80840ADF80C104189681E4F
:104F90000844ADF80E00ADF80A5001A8FEF722FE55
:104FA00002A80AF0EBFF06E02A462146304600F050
:104FB00049F90AF0A5FF0028F6D100F07BFD7FBD7E
:104FC0002DE9FF4FDFF8E8B083B01C46DBF8001096
:104FD000DDE9106092464FF000084B7C4246129982
:104FE000FEF7D6FF050060D028698068804706F08C
:104FF00021FB81460AFB09F1C91DCF08FEF7D8FD48
:10500000F10705D1C11700EB9170801000EB400053
:10501000002C09DC1FB11838B0FBF7F000E00020CD
:105020006442A04200DC0446F00707D10090DDE9AD
:1050300003012346524600F0ABFC8046002C03DC03
:105040002846FEF7E1FF30E004FB07F01830F107D7
:1050500002D0FEF787FC01E0FEF793FC06001CD0AF
:10506000FEF76CFD01900560039981800499C18071
:10507000A0F808A04481C0F81480C0E9037901A811
:10508000FEF7B0FD1298AE602861DBF80000407CAE
:10509000A861304607B0BDE8F08F2846FEF7B4FFA0
:1050A0005FEA080001D0FEF78BFC0020F2E7000069
:1050B000640100202DE9F74F8EB0144689460E9802
:1050C000FEF73CFD0990B0F908B0B0F90A6000683D
:1050D000006940680C9009A8FEF784FD564D574FB3
:1050E0002868407C57F82000C1688A6A08219047E8
:1050F0000790182801D3202007902868407C57F893
:1051000020000069069003C80B904D48814201D0F1
:10511000012000E000200A90002000F035FD00286A
:105120007DD1286809EB0B01B0F90C20891A491EC2
:10513000002902DDABEB010500E05D46B0F9081087
:10514000494505DDA1EB090189446D1A089101E08B
:1051500000210891002D6BDDB0F90E20A119891AEC
:10516000491E002902DDA6EB010800E0B046B0F9B7
:105170000A00A04204DD061B3444A8EB060800E048
:105180000026B8F1000F53DD089801900DA95F4685
:10519000DDF830A00E980091FFF723FE774300EB77
:1051A000870101982B4601EB800200994846CDE922
:1051B00000A1214600F076FF0090002838D00A9820
:1051C000E8B1DDE906322946009800F08DFDB0B95E
:1051D0000698009FDA46D0F810C0BCF1000F05D049
:1051E00004235A4639463846E04708E00B993868A8
:1051F000884701C7AAF101005FEA000AF6D10099C9
:105200000020079ACDE90301059001200090CDE927
:10521000010221460346641C2A46484600E007E096
:1052200005F03CFCA8F10100761C5FEA0008ABD158
:1052300011B0BDE8F08F0000640100207C01002067
:105240009FAF0008F8B515460E460746FEF776FCF8
:10525000009000681621C068426A0020904704460A
:105260006846FEF7BFFC002C03D02A46314638467C
:10527000A047F8BDF8B515460E460746FEF75EFC9A
:10528000009044696846FEF7ADFC3846FFF790FD94
:105290000346082800DD2CB12A463146384611F075
:1052A000BFFBF8BD2A463146384611F059FDF8BD1E
:1052B00010B5002821D009B30AB3B1F90040B2F902
:1052C00000309C4200DA23460380B1F90240B2F973
:1052D00002309C4200DA23464380B1F90440B2F91F
:1052E00004309C4200DD23468380B1F90610B2F9F8
:1052F0000620914200DC1146C18010BD11460A68AB
:1053000002604968416010BD00280BD003880B443F
:105310000380838819448180418811444180C18879
:105320001144C1807047000070B50025FFF77EFB77
:10533000094CD4E9002082420AD0D2E90056104636
:105340000FF036F92060314628460AF0AFFA012501
:1053500000F0B0FB284670BDD00200202DE9FC41D2
:10536000154DDDE908742D68B5F90860864200DD49
:105370003046B5F90C60964200DA3246824219DBBB
:10538000B5F90A608E4200DD3146B5F90E509D42F6
:1053900000DA2B468B420DDB00E02C46E5682D68D9
:1053A00025B1042D02D02568002DF6D1CDE9007479
:1053B00005F04EFEBDE8FC8164010020B0F902203A
:1053C000B1F906309A4213DCB1F90220B0F9063087
:1053D0009A420DDCB0F90020B1F904309A4207DCA2
:1053E000B1F90010B0F90400814201DC01207047DE
:1053F000002070470146024870220068FBF7F0B8B1
:1054000064010020024970220968FBF7E9B8000036
:105410006401002010B5FFF709FB05F0E5FE05F07B
:1054200095FF09F0D5FCBDE8104000F043BB00003B
:1054300070B5094D04462868467CFFF7F7FA022C40
:1054400003D228684474FFF7E5FF0448046000F0C5
:1054500031FB304670BD0000640100203C0200209A
:1054600010B50446FFF7E2FA204605F0DDFEBDE880
:10547000104000F01FBB10B50446FFF7D7FA2046D6
:1054800005F00AFFBDE8104000F014BB0149886038
:10549000704700005801002010B50446FFF7C6FA17
:1054A000204605F00BFF044600F004FB204610BD2B
:1054B00070B50446FFF7BAFA04480068C56904B13C
:1054C000C46100F0F7FA284670BD000064010020B6
:1054D00070B50546FFF7AAFA03480068847E857612
:1054E00000F0E8FA204670BD6401002070B50C465B
:1054F0000546FFF79BFA09482246058008480480C4
:1055000008480068417C084850F82100C1680B6ACF
:1055100029469847BDE8704000F0CCBAA4010020AD
:10552000A6010020640100207C01002070B5054622
:10553000FFF77CFA03480068047E057600F0BAFAAB
:10554000204670BD6401002070B50446FFF76EFA76
:1055500004480068B0F92C50848500F0ABFA284666
:1055600070BD00006401002070B50446FFF75EFACC
:1055700004480068B0F92A50448500F09BFA284698
:1055800070BD00006401002002480068002800D0BF
:1055900000477047FC02002002498A6802B988600F
:1055A000FFF7F2BFD00200202DE9FC4198461646D5
:1055B0000D460746FFF73AFA1C20FEF7E2F9040011
:1055C0002DD01C491A4808602046FEF7B7FA009013
:1055D00015B9FFF778F9054600980760C0E904653A
:1055E000A0F80C806846FEF7FDFA20460FF088FA16
:1055F000114DA86840B90120A86005F10C010F48C1
:105600000860084601F0D0F82046FEF797FA0190AE
:10561000296849B181602C6001A8FEF7E3FA00F027
:1056200049FA2046BDE8FC8100212C608160F3E747
:105630006956000888010020D80300204551010860
:1056400010B504000ED0FFF7F1F9204610F08CFBE6
:10565000204611F0F9F82046FEF7B2F9BDE81040F7
:1056600000F028BA10BD00002DE9F04188B00025F7
:10567000FFF7DCF9184C676825E000BFFFF723F956
:1056800006466068FEF75AFA01904169891B0029B5
:1056900015DC6168029604910169039146686660B1
:1056A000D0F8008001A8FEF79DFA02A8414688477D
:1056B00066B160680125B84205D1002506E001A861
:1056C000FEF790FA02E060680028D7D100F0F2F906
:1056D00008B02846BDE8F081D803002038B50C4654
:1056E000050011D0FFF7A2F92846FEF727FA00902F
:1056F0008089204201D0012400E000246846FEF7A2
:1057000071FA00F0D7F900E00124204638BD38B521
:10571000040017D0FFF78AF92046FEF70FFA009031
:10572000FFF7D1F80146009882691144416168464B
:10573000FEF758FA204611F087F820460FF0E0F9FE
:1057400000F0B8F938BD38B50C4605000BD0FFF7AE
:105750006DF92846FEF7F2F9009084616846FEF77D
:1057600041FA00F0A7F938BD38B505460020286099
:105770000648046844B12046FEF7E0F9009000694D
:1057800028606846FEF72EFA204638BDD803002070
:1057900038B504004FF000000D46086011D02046D7
:1057A000FEF7CCF90090846844B16846FEF71AFA17
:1057B0002046FEF7C3F90090006928606846FEF7AE
:1057C00011FA204638BD000070B50C460546FFF7BB
:1057D0002DF9054821460068C268284690470446CE
:1057E00000F068F9204670BD6801002010B504463D
:1057F000FFF71CF904480068016820468847044602
:1058000000F058F9204610BD6801002010B504468C
:10581000FFF70CF9044800684168204688470446B1
:1058200000F048F9204610BD6801002001490968D0
:1058300089680847680100202DE9F041084E0446B8
:10584000056830680168284688470746306841681F
:1058500028468847284420603846BDE8F08100008B
:10586000680100202DE9F04100250E4680462C46B7
:10587000064F06E0396808EB04004968884704448D
:105880006D1CA642F6DC2846BDE8F08168010020C8
:105890002DE9F0410C4606460025064F05E0386824
:1058A00041683046884706440544641EF7D22846BE
:1058B000BDE8F081680100202DE9F0411E46069CFC
:1058C0001746884605463A46A8687F1C3346D0F8F6
:1058D00004C041462846E047641EF4D1BDE8F0818B
:1058E00070B5B0F90040091BB0F904408C422CDDC2
:1058F00000F11404B0F902500069521B02FB004091
:10590000CA1800EBE104521ED010B0EBE10501F023
:1059100007034FF0FF0102F0070221FA03F0C2F182
:10592000070201FA02F1CEB221780FD001436D1EB9
:1059300004F8011B002D05DDFF2229462046FAF759
:1059400081FE2C4420783043207070BD30400143EC
:10595000217070BD10B5B0F90030B0F90240C91A1D
:1059600000F114030069121B02FB003000EBE100A0
:1059700001F0070302788021D9400A43027010BD6C
:10598000B0F90610026951431430FAF763BE000003
:105990002DE9F843804602F10F000011470003FB98
:1059A00007F01C46154689461430FDF7EAFF06004D
:1059B00018D0FFF73BF83046FEF7C0F80090A0F88B
:1059C0000080A0F802908580C48007498160012191
:1059D000818107616846FEF705F900F06BF83046F3
:1059E000BDE8F8830020FBE7F4CE010870B5B0F9FC
:1059F0000660B0F904400B6800F1140596421BDD07
:105A00000069A34202FB005000EBE30214DA641EBB
:105A1000E010A0EBE30512F8010B03F00704A0402F
:105A2000C4B206E045B1083312F8014B23F0070376
:105A30006D1E002CF6D004E0002070BD6006040E40
:105A40005B1C2006FAD5FF2C07D0184602E064063E
:105A5000240E401C6606FAD400E0D81DC443640737
:105A600005D006E012F8014BFF2C09D108306D1E5D
:105A7000F8D5C01A401C0B6070BD6206140E401CA5
:105A80002206FAD4F5E738B50546FEF7CFFF2846DB
:105A9000FEF754F800908189491E0CB28481684653
:105AA000FEF7A0F814B92846FDF78AFF00F002F8C7
:105AB00038BD00000348C168491EC16001D100F033
:105AC0005BB87047E00200202DE9F04116460F4612
:105AD00005460024FEF7AAFF32463946284600F064
